{"abi":[{"type":"constructor","inputs":[{"name":"initialOwner","type":"address","internalType":"address"}],"stateMutability":"nonpayable"},{"type":"function","name":"getPublishedRoot","inputs":[{"name":"_index","type":"uint256","internalType":"uint256"}],"outputs":[{"name":"","type":"bytes32","internalType":"bytes32"}],"stateMutability":"view"},{"type":"function","name":"getPublishedRootsCount","inputs":[],"outputs":[{"name":"","type":"uint256","internalType":"uint256"}],"stateMutability":"view"},{"type":"function","name":"getTermRootInfo","inputs":[{"name":"_verkleRoot","type":"bytes32","internalType":"bytes32"}],"outputs":[{"name":"termId","type":"string","internalType":"string"},{"name":"totalStudents","type":"uint256","internalType":"uint256"},{"name":"publishedAt","type":"uint256","internalType":"uint256"},{"name":"exists","type":"bool","internalType":"bool"}],"stateMutability":"view"},{"type":"function","name":"owner","inputs":[],"outputs":[{"name":"","type":"address","internalType":"address"}],"stateMutability":"view"},{"type":"function","name":"publishTermRoot","inputs":[{"name":"_verkleRoot","type":"bytes32","internalType":"bytes32"},{"name":"_termId","type":"string","internalType":"string"},{"name":"_totalStudents","type":"uint256","internalType":"uint256"}],"outputs":[],"stateMutability":"nonpayable"},{"type":"function","name":"publishedRoots","inputs":[{"name":"","type":"uint256","internalType":"uint256"}],"outputs":[{"name":"","type":"bytes32","internalType":"bytes32"}],"stateMutability":"view"},{"type":"function","name":"renounceOwnership","inputs":[],"outputs":[],"stateMutability":"nonpayable"},{"type":"function","name":"termRoots","inputs":[{"name":"","type":"bytes32","internalType":"bytes32"}],"outputs":[{"name":"termId","type":"string","internalType":"string"},{"name":"totalStudents","type":"uint256","internalType":"uint256"},{"name":"publishedAt","type":"uint256","internalType":"uint256"},{"name":"exists","type":"bool","internalType":"bool"}],"stateMutability":"view"},{"type":"function","name":"transferOwnership","inputs":[{"name":"newOwner","type":"address","internalType":"address"}],"outputs":[],"stateMutability":"nonpayable"},{"type":"function","name":"verifyReceiptAnchor","inputs":[{"name":"_blockchainAnchor","type":"bytes32","internalType":"bytes32"}],"outputs":[{"name":"isValid","type":"bool","internalType":"bool"},{"name":"termId","type":"string","internalType":"string"},{"name":"publishedAt","type":"uint256","internalType":"uint256"}],"stateMutability":"view"},{"type":"event","name":"OwnershipTransferred","inputs":[{"name":"previousOwner","type":"address","indexed":true,"internalType":"address"},{"name":"newOwner","type":"address","indexed":true,"internalType":"address"}],"anonymous":false},{"type":"event","name":"TermRootPublished","inputs":[{"name":"verkleRoot","type":"bytes32","indexed":true,"internalType":"bytes32"},{"name":"termId","type":"string","indexed":true,"internalType":"string"},{"name":"totalStudents","type":"uint256","indexed":false,"internalType":"uint256"},{"name":"timestamp","type":"uint256","indexed":false,"internalType":"uint256"}],"anonymous":false},{"type":"error","name":"OwnableInvalidOwner","inputs":[{"name":"owner","type":"address","internalType":"address"}]},{"type":"error","name":"OwnableUnauthorizedAccount","inputs":[{"name":"account","type":"address","internalType":"address"}]}],"bytecode":{"object":"0x608060405234801561000f575f5ffd5b506040516115fc3803806115fc833981810160405281019061003191906101d7565b805f73ffffffffffffffffffffffffffffffffffffffff168173ffffffffffffffffffffffffffffffffffffffff16036100a2575f6040517f1e4fbdf70000000000000000000000000000000000000000000000000000000081526004016100999190610211565b60405180910390fd5b6100b1816100b860201b60201c565b505061022a565b5f5f5f9054906101000a900473ffffffffffffffffffffffffffffffffffffffff169050815f5f6101000a81548173ffffffffffffffffffffffffffffffffffffffff021916908373ffffffffffffffffffffffffffffffffffffffff1602179055508173ffffffffffffffffffffffffffffffffffffffff168173ffffffffffffffffffffffffffffffffffffffff167f8be0079c531659141344cd1fd0a4f28419497f9722a3daafe3b4186f6b6457e060405160405180910390a35050565b5f5ffd5b5f73ffffffffffffffffffffffffffffffffffffffff82169050919050565b5f6101a68261017d565b9050919050565b6101b68161019c565b81146101c0575f5ffd5b50565b5f815190506101d1816101ad565b92915050565b5f602082840312156101ec576101eb610179565b5b5f6101f9848285016101c3565b91505092915050565b61020b8161019c565b82525050565b5f6020820190506102245f830184610202565b92915050565b6113c5806102375f395ff3fe608060405234801561000f575f5ffd5b506004361061009c575f3560e01c8063744a92b611610064578063744a92b6146101725780638da5cb5b146101a2578063a2fbbc58146101c0578063f2fde38b146101de578063fe1e73fb146101fa5761009c565b80632a2dab4a146100a0578063351863fb146100d257806350fe2c36146101025780636f90e9ea14610135578063715018a614610168575b5f5ffd5b6100ba60048036038101906100b591906109e9565b610216565b6040516100c993929190610ab6565b60405180910390f35b6100ec60048036038101906100e79190610b1c565b610312565b6040516100f99190610b56565b60405180910390f35b61011c600480360381019061011791906109e9565b61037e565b60405161012c9493929190610b6f565b60405180910390f35b61014f600480360381019061014a91906109e9565b61043c565b60405161015f9493929190610b6f565b60405180910390f35b610170610540565b005b61018c60048036038101906101879190610b1c565b610553565b6040516101999190610b56565b60405180910390f35b6101aa610573565b6040516101b79190610bf8565b60405180910390f35b6101c861059a565b6040516101d59190610c11565b60405180910390f35b6101f860048036038101906101f39190610c54565b6105a6565b005b610214600480360381019061020f9190610dab565b61062a565b005b5f60605f5f60015f8681526020019081526020015f206040518060800160405290815f8201805461024690610e44565b80601f016020809104026020016040519081016040528092919081815260200182805461027290610e44565b80156102bd5780601f10610294576101008083540402835291602001916102bd565b820191905f5260205f20905b8154815290600101906020018083116102a057829003601f168201915b505050505081526020016001820154815260200160028201548152602001600382015f9054906101000a900460ff16151515158152505090508060600151815f01518260400151935093509350509193909250565b5f600280549050821061035a576040517f08c379a000000000000000000000000000000000000000000000000000000000815260040161035190610ebe565b60405180910390fd5b6002828154811061036e5761036d610edc565b5b905f5260205f2001549050919050565b6001602052805f5260405f205f91509050805f01805461039d90610e44565b80601f01602080910402602001604051908101604052809291908181526020018280546103c990610e44565b80156104145780601f106103eb57610100808354040283529160200191610414565b820191905f5260205f20905b8154815290600101906020018083116103f757829003601f168201915b505050505090806001015490806002015490806003015f9054906101000a900460ff16905084565b60605f5f5f5f60015f8781526020019081526020015f206040518060800160405290815f8201805461046d90610e44565b80601f016020809104026020016040519081016040528092919081815260200182805461049990610e44565b80156104e45780601f106104bb576101008083540402835291602001916104e4565b820191905f5260205f20905b8154815290600101906020018083116104c757829003601f168201915b505050505081526020016001820154815260200160028201548152602001600382015f9054906101000a900460ff1615151515815250509050805f01518160200151826040015183606001519450945094509450509193509193565b610548610856565b6105515f6108dd565b565b60028181548110610562575f80fd5b905f5260205f20015f915090505481565b5f5f5f9054906101000a900473ffffffffffffffffffffffffffffffffffffffff16905090565b5f600280549050905090565b6105ae610856565b5f73ffffffffffffffffffffffffffffffffffffffff168173ffffffffffffffffffffffffffffffffffffffff160361061e575f6040517f1e4fbdf70000000000000000000000000000000000000000000000000000000081526004016106159190610bf8565b60405180910390fd5b610627816108dd565b50565b610632610856565b5f5f1b8303610676576040517f08c379a000000000000000000000000000000000000000000000000000000000815260040161066d90610f53565b60405180910390fd5b5f8251116106b9576040517f08c379a00000000000000000000000000000000000000000000000000000000081526004016106b090610fbb565b60405180910390fd5b5f81116106fb576040517f08c379a00000000000000000000000000000000000000000000000000000000081526004016106f290611023565b60405180910390fd5b60015f8481526020019081526020015f206003015f9054906101000a900460ff161561075c576040517f08c379a00000000000000000000000000000000000000000000000000000000081526004016107539061108b565b60405180910390fd5b60405180608001604052808381526020018281526020014281526020016001151581525060015f8581526020019081526020015f205f820151815f0190816107a49190611249565b5060208201518160010155604082015181600201556060820151816003015f6101000a81548160ff021916908315150217905550905050600283908060018154018082558091505060019003905f5260205f20015f90919091909150558160405161080f9190611352565b6040518091039020837fea6b942a9a27c613b21181fd056514044b334e9a6930a7e0be909ab4b520ee4b8342604051610849929190611368565b60405180910390a3505050565b61085e61099e565b73ffffffffffffffffffffffffffffffffffffffff1661087c610573565b73ffffffffffffffffffffffffffffffffffffffff16146108db5761089f61099e565b6040517f118cdaa70000000000000000000000000000000000000000000000000000000081526004016108d29190610bf8565b60405180910390fd5b565b5f5f5f9054906101000a900473ffffffffffffffffffffffffffffffffffffffff169050815f5f6101000a81548173ffffffffffffffffffffffffffffffffffffffff021916908373ffffffffffffffffffffffffffffffffffffffff1602179055508173ffffffffffffffffffffffffffffffffffffffff168173ffffffffffffffffffffffffffffffffffffffff167f8be0079c531659141344cd1fd0a4f28419497f9722a3daafe3b4186f6b6457e060405160405180910390a35050565b5f33905090565b5f604051905090565b5f5ffd5b5f5ffd5b5f819050919050565b6109c8816109b6565b81146109d2575f5ffd5b50565b5f813590506109e3816109bf565b92915050565b5f602082840312156109fe576109fd6109ae565b5b5f610a0b848285016109d5565b91505092915050565b5f8115159050919050565b610a2881610a14565b82525050565b5f81519050919050565b5f82825260208201905092915050565b8281835e5f83830152505050565b5f601f19601f8301169050919050565b5f610a7082610a2e565b610a7a8185610a38565b9350610a8a818560208601610a48565b610a9381610a56565b840191505092915050565b5f819050919050565b610ab081610a9e565b82525050565b5f606082019050610ac95f830186610a1f565b8181036020830152610adb8185610a66565b9050610aea6040830184610aa7565b949350505050565b610afb81610a9e565b8114610b05575f5ffd5b50565b5f81359050610b1681610af2565b92915050565b5f60208284031215610b3157610b306109ae565b5b5f610b3e84828501610b08565b91505092915050565b610b50816109b6565b82525050565b5f602082019050610b695f830184610b47565b92915050565b5f6080820190508181035f830152610b878187610a66565b9050610b966020830186610aa7565b610ba36040830185610aa7565b610bb06060830184610a1f565b95945050505050565b5f73ffffffffffffffffffffffffffffffffffffffff82169050919050565b5f610be282610bb9565b9050919050565b610bf281610bd8565b82525050565b5f602082019050610c0b5f830184610be9565b92915050565b5f602082019050610c245f830184610aa7565b92915050565b610c3381610bd8565b8114610c3d575f5ffd5b50565b5f81359050610c4e81610c2a565b92915050565b5f60208284031215610c6957610c686109ae565b5b5f610c7684828501610c40565b91505092915050565b5f5ffd5b5f5ffd5b7f4e487b71000000000000000000000000000000000000000000000000000000005f52604160045260245ffd5b610cbd82610a56565b810181811067ffffffffffffffff82111715610cdc57610cdb610c87565b5b80604052505050565b5f610cee6109a5565b9050610cfa8282610cb4565b919050565b5f67ffffffffffffffff821115610d1957610d18610c87565b5b610d2282610a56565b9050602081019050919050565b828183375f83830152505050565b5f610d4f610d4a84610cff565b610ce5565b905082815260208101848484011115610d6b57610d6a610c83565b5b610d76848285610d2f565b509392505050565b5f82601f830112610d9257610d91610c7f565b5b8135610da2848260208601610d3d565b91505092915050565b5f5f5f60608486031215610dc257610dc16109ae565b5b5f610dcf868287016109d5565b935050602084013567ffffffffffffffff811115610df057610def6109b2565b5b610dfc86828701610d7e565b9250506040610e0d86828701610b08565b9150509250925092565b7f4e487b71000000000000000000000000000000000000000000000000000000005f52602260045260245ffd5b5f6002820490506001821680610e5b57607f821691505b602082108103610e6e57610e6d610e17565b5b50919050565b7f496e646578206f7574206f6620626f756e6473000000000000000000000000005f82015250565b5f610ea8601383610a38565b9150610eb382610e74565b602082019050919050565b5f6020820190508181035f830152610ed581610e9c565b9050919050565b7f4e487b71000000000000000000000000000000000000000000000000000000005f52603260045260245ffd5b7f496e76616c6964205665726b6c6520726f6f74000000000000000000000000005f82015250565b5f610f3d601383610a38565b9150610f4882610f09565b602082019050919050565b5f6020820190508181035f830152610f6a81610f31565b9050919050565b7f5465726d204944207265717569726564000000000000000000000000000000005f82015250565b5f610fa5601083610a38565b9150610fb082610f71565b602082019050919050565b5f6020820190508181035f830152610fd281610f99565b9050919050565b7f496e76616c69642073747564656e7420636f756e7400000000000000000000005f82015250565b5f61100d601583610a38565b915061101882610fd9565b602082019050919050565b5f6020820190508181035f83015261103a81611001565b9050919050565b7f526f6f7420616c7265616479207075626c6973686564000000000000000000005f82015250565b5f611075601683610a38565b915061108082611041565b602082019050919050565b5f6020820190508181035f8301526110a281611069565b9050919050565b5f819050815f5260205f209050919050565b5f6020601f8301049050919050565b5f82821b905092915050565b5f600883026111057fffffffffffffffffffffffffffffffffffffffffffffffffffffffffffffffff826110ca565b61110f86836110ca565b95508019841693508086168417925050509392505050565b5f819050919050565b5f61114a61114561114084610a9e565b611127565b610a9e565b9050919050565b5f819050919050565b61116383611130565b61117761116f82611151565b8484546110d6565b825550505050565b5f5f905090565b61118e61117f565b61119981848461115a565b505050565b5b818110156111bc576111b15f82611186565b60018101905061119f565b5050565b601f821115611201576111d2816110a9565b6111db846110bb565b810160208510156111ea578190505b6111fe6111f6856110bb565b83018261119e565b50505b505050565b5f82821c905092915050565b5f6112215f1984600802611206565b1980831691505092915050565b5f6112398383611212565b9150826002028217905092915050565b61125282610a2e565b67ffffffffffffffff81111561126b5761126a610c87565b5b6112758254610e44565b6112808282856111c0565b5f60209050601f8311600181146112b1575f841561129f578287015190505b6112a9858261122e565b865550611310565b601f1984166112bf866110a9565b5f5b828110156112e6578489015182556001820191506020850194506020810190506112c1565b8683101561130357848901516112ff601f891682611212565b8355505b6001600288020188555050505b505050505050565b5f81905092915050565b5f61132c82610a2e565b6113368185611318565b9350611346818560208601610a48565b80840191505092915050565b5f61135d8284611322565b915081905092915050565b5f60408201905061137b5f830185610aa7565b6113886020830184610aa7565b939250505056fea2646970667358221220e277a5bb80b2c97fb9417eddcbd259ba65c7fd5618839aa005dd0c7ab387248d64736f6c634300081e0033","linkReferences":{}},"methodIdentifiers":{"getPublishedRoot(uint256)":"351863fb","getPublishedRootsCount()":"a2fbbc58","getTermRootInfo(bytes32)":"6f90e9ea","owner()":"8da5cb5b","publishTermRoot(bytes32,string,uint256)":"fe1e73fb","publishedRoots(uint256)":"744a92b6","renounceOwnership()":"715018a6","termRoots(bytes32)":"50fe2c36","transferOwnership(address)":"f2fde38b","verifyReceiptAnchor(bytes32)":"2a2dab4a"},"id":23}