{"abi":[{"type":"constructor","inputs":[{"name":"initialOwner","type":"address","internalType":"address"}],"stateMutability":"nonpayable"},{"type":"function","name":"getRevokedReceiptId","inputs":[{"name":"_index","type":"uint256","internalType":"uint256"}],"outputs":[{"name":"","type":"bytes32","internalType":"bytes32"}],"stateMutability":"view"},{"type":"function","name":"getTotalRevocations","inputs":[],"outputs":[{"name":"","type":"uint256","internalType":"uint256"}],"stateMutability":"view"},{"type":"function","name":"isReceiptRevoked","inputs":[{"name":"_receiptId","type":"bytes32","internalType":"bytes32"}],"outputs":[{"name":"isRevoked","type":"bool","internalType":"bool"},{"name":"revokedAt","type":"uint256","internalType":"uint256"},{"name":"reason","type":"string","internalType":"string"}],"stateMutability":"view"},{"type":"function","name":"owner","inputs":[],"outputs":[{"name":"","type":"address","internalType":"address"}],"stateMutability":"view"},{"type":"function","name":"renounceOwnership","inputs":[],"outputs":[],"stateMutability":"nonpayable"},{"type":"function","name":"revokeReceipt","inputs":[{"name":"_receiptId","type":"bytes32","internalType":"bytes32"},{"name":"_reason","type":"string","internalType":"string"}],"outputs":[],"stateMutability":"nonpayable"},{"type":"function","name":"revokedReceiptIds","inputs":[{"name":"","type":"uint256","internalType":"uint256"}],"outputs":[{"name":"","type":"bytes32","internalType":"bytes32"}],"stateMutability":"view"},{"type":"function","name":"revokedReceipts","inputs":[{"name":"","type":"bytes32","internalType":"bytes32"}],"outputs":[{"name":"isRevoked","type":"bool","internalType":"bool"},{"name":"revokedAt","type":"uint256","internalType":"uint256"},{"name":"reason","type":"string","internalType":"string"}],"stateMutability":"view"},{"type":"function","name":"transferOwnership","inputs":[{"name":"newOwner","type":"address","internalType":"address"}],"outputs":[],"stateMutability":"nonpayable"},{"type":"event","name":"OwnershipTransferred","inputs":[{"name":"previousOwner","type":"address","indexed":true,"internalType":"address"},{"name":"newOwner","type":"address","indexed":true,"internalType":"address"}],"anonymous":false},{"type":"event","name":"ReceiptRevoked","inputs":[{"name":"receiptId","type":"bytes32","indexed":true,"internalType":"bytes32"},{"name":"reason","type":"string","indexed":false,"internalType":"string"},{"name":"timestamp","type":"uint256","indexed":false,"internalType":"uint256"}],"anonymous":false},{"type":"error","name":"OwnableInvalidOwner","inputs":[{"name":"owner","type":"address","internalType":"address"}]},{"type":"error","name":"OwnableUnauthorizedAccount","inputs":[{"name":"account","type":"address","internalType":"address"}]}],"bytecode":{"object":"0x608060405234801561000f575f5ffd5b50604051611286380380611286833981810160405281019061003191906101d7565b805f73ffffffffffffffffffffffffffffffffffffffff168173ffffffffffffffffffffffffffffffffffffffff16036100a2575f6040517f1e4fbdf70000000000000000000000000000000000000000000000000000000081526004016100999190610211565b60405180910390fd5b6100b1816100b860201b60201c565b505061022a565b5f5f5f9054906101000a900473ffffffffffffffffffffffffffffffffffffffff169050815f5f6101000a81548173ffffffffffffffffffffffffffffffffffffffff021916908373ffffffffffffffffffffffffffffffffffffffff1602179055508173ffffffffffffffffffffffffffffffffffffffff168173ffffffffffffffffffffffffffffffffffffffff167f8be0079c531659141344cd1fd0a4f28419497f9722a3daafe3b4186f6b6457e060405160405180910390a35050565b5f5ffd5b5f73ffffffffffffffffffffffffffffffffffffffff82169050919050565b5f6101a68261017d565b9050919050565b6101b68161019c565b81146101c0575f5ffd5b50565b5f815190506101d1816101ad565b92915050565b5f602082840312156101ec576101eb610179565b5b5f6101f9848285016101c3565b91505092915050565b61020b8161019c565b82525050565b5f6020820190506102245f830184610202565b92915050565b61104f806102375f395ff3fe608060405234801561000f575f5ffd5b5060043610610091575f3560e01c80634c010e1a116100645780634c010e1a14610147578063715018a6146101775780638da5cb5b14610181578063f2fde38b1461019f578063f3881f13146101bb57610091565b80631405e7cf1461009557806320503975146100b35780632c6b0ddf146100e3578063350f732114610115575b5f5ffd5b61009d6101d7565b6040516100aa91906107bc565b60405180910390f35b6100cd60048036038101906100c89190610810565b6101e3565b6040516100da9190610853565b60405180910390f35b6100fd60048036038101906100f89190610896565b610203565b60405161010c9392919061094b565b60405180910390f35b61012f600480360381019061012a9190610896565b6102f5565b60405161013e9392919061094b565b60405180910390f35b610161600480360381019061015c9190610810565b6103ad565b60405161016e9190610853565b60405180910390f35b61017f610419565b005b61018961042c565b60405161019691906109c6565b60405180910390f35b6101b960048036038101906101b49190610a09565b610453565b005b6101d560048036038101906101d09190610b60565b6104d7565b005b5f600280549050905090565b600281815481106101f2575f80fd5b905f5260205f20015f915090505481565b5f5f60605f60015f8681526020019081526020015f206040518060600160405290815f82015f9054906101000a900460ff161515151581526020016001820154815260200160028201805461025790610be7565b80601f016020809104026020016040519081016040528092919081815260200182805461028390610be7565b80156102ce5780601f106102a5576101008083540402835291602001916102ce565b820191905f5260205f20905b8154815290600101906020018083116102b157829003601f168201915b5050505050815250509050805f015181602001518260400151935093509350509193909250565b6001602052805f5260405f205f91509050805f015f9054906101000a900460ff169080600101549080600201805461032c90610be7565b80601f016020809104026020016040519081016040528092919081815260200182805461035890610be7565b80156103a35780601f1061037a576101008083540402835291602001916103a3565b820191905f5260205f20905b81548152906001019060200180831161038657829003601f168201915b5050505050905083565b5f60028054905082106103f5576040517f08c379a00000000000000000000000000000000000000000000000000000000081526004016103ec90610c61565b60405180910390fd5b6002828154811061040957610408610c7f565b5b905f5260205f2001549050919050565b610421610655565b61042a5f6106dc565b565b5f5f5f9054906101000a900473ffffffffffffffffffffffffffffffffffffffff16905090565b61045b610655565b5f73ffffffffffffffffffffffffffffffffffffffff168173ffffffffffffffffffffffffffffffffffffffff16036104cb575f6040517f1e4fbdf70000000000000000000000000000000000000000000000000000000081526004016104c291906109c6565b60405180910390fd5b6104d4816106dc565b50565b6104df610655565b60015f8381526020019081526020015f205f015f9054906101000a900460ff161561053f576040517f08c379a000000000000000000000000000000000000000000000000000000000815260040161053690610cf6565b60405180910390fd5b5f815111610582576040517f08c379a000000000000000000000000000000000000000000000000000000000815260040161057990610d5e565b60405180910390fd5b60405180606001604052806001151581526020014281526020018281525060015f8481526020019081526020015f205f820151815f015f6101000a81548160ff0219169083151502179055506020820151816001015560408201518160020190816105ed9190610f1c565b50905050600282908060018154018082558091505060019003905f5260205f20015f9091909190915055817f84cf945c58c4e0aceecab14d63b02c8ef40644eeeb6ec651df4fc38e1709eacd8242604051610649929190610feb565b60405180910390a25050565b61065d61079d565b73ffffffffffffffffffffffffffffffffffffffff1661067b61042c565b73ffffffffffffffffffffffffffffffffffffffff16146106da5761069e61079d565b6040517f118cdaa70000000000000000000000000000000000000000000000000000000081526004016106d191906109c6565b60405180910390fd5b565b5f5f5f9054906101000a900473ffffffffffffffffffffffffffffffffffffffff169050815f5f6101000a81548173ffffffffffffffffffffffffffffffffffffffff021916908373ffffffffffffffffffffffffffffffffffffffff1602179055508173ffffffffffffffffffffffffffffffffffffffff168173ffffffffffffffffffffffffffffffffffffffff167f8be0079c531659141344cd1fd0a4f28419497f9722a3daafe3b4186f6b6457e060405160405180910390a35050565b5f33905090565b5f819050919050565b6107b6816107a4565b82525050565b5f6020820190506107cf5f8301846107ad565b92915050565b5f604051905090565b5f5ffd5b5f5ffd5b6107ef816107a4565b81146107f9575f5ffd5b50565b5f8135905061080a816107e6565b92915050565b5f60208284031215610825576108246107de565b5b5f610832848285016107fc565b91505092915050565b5f819050919050565b61084d8161083b565b82525050565b5f6020820190506108665f830184610844565b92915050565b6108758161083b565b811461087f575f5ffd5b50565b5f813590506108908161086c565b92915050565b5f602082840312156108ab576108aa6107de565b5b5f6108b884828501610882565b91505092915050565b5f8115159050919050565b6108d5816108c1565b82525050565b5f81519050919050565b5f82825260208201905092915050565b8281835e5f83830152505050565b5f601f19601f8301169050919050565b5f61091d826108db565b61092781856108e5565b93506109378185602086016108f5565b61094081610903565b840191505092915050565b5f60608201905061095e5f8301866108cc565b61096b60208301856107ad565b818103604083015261097d8184610913565b9050949350505050565b5f73ffffffffffffffffffffffffffffffffffffffff82169050919050565b5f6109b082610987565b9050919050565b6109c0816109a6565b82525050565b5f6020820190506109d95f8301846109b7565b92915050565b6109e8816109a6565b81146109f2575f5ffd5b50565b5f81359050610a03816109df565b92915050565b5f60208284031215610a1e57610a1d6107de565b5b5f610a2b848285016109f5565b91505092915050565b5f5ffd5b5f5ffd5b7f4e487b71000000000000000000000000000000000000000000000000000000005f52604160045260245ffd5b610a7282610903565b810181811067ffffffffffffffff82111715610a9157610a90610a3c565b5b80604052505050565b5f610aa36107d5565b9050610aaf8282610a69565b919050565b5f67ffffffffffffffff821115610ace57610acd610a3c565b5b610ad782610903565b9050602081019050919050565b828183375f83830152505050565b5f610b04610aff84610ab4565b610a9a565b905082815260208101848484011115610b2057610b1f610a38565b5b610b2b848285610ae4565b509392505050565b5f82601f830112610b4757610b46610a34565b5b8135610b57848260208601610af2565b91505092915050565b5f5f60408385031215610b7657610b756107de565b5b5f610b8385828601610882565b925050602083013567ffffffffffffffff811115610ba457610ba36107e2565b5b610bb085828601610b33565b9150509250929050565b7f4e487b71000000000000000000000000000000000000000000000000000000005f52602260045260245ffd5b5f6002820490506001821680610bfe57607f821691505b602082108103610c1157610c10610bba565b5b50919050565b7f496e646578206f7574206f6620626f756e6473000000000000000000000000005f82015250565b5f610c4b6013836108e5565b9150610c5682610c17565b602082019050919050565b5f6020820190508181035f830152610c7881610c3f565b9050919050565b7f4e487b71000000000000000000000000000000000000000000000000000000005f52603260045260245ffd5b7f5265636569707420616c7265616479207265766f6b65640000000000000000005f82015250565b5f610ce06017836108e5565b9150610ceb82610cac565b602082019050919050565b5f6020820190508181035f830152610d0d81610cd4565b9050919050565b7f526561736f6e20726571756972656400000000000000000000000000000000005f82015250565b5f610d48600f836108e5565b9150610d5382610d14565b602082019050919050565b5f6020820190508181035f830152610d7581610d3c565b9050919050565b5f819050815f5260205f209050919050565b5f6020601f8301049050919050565b5f82821b905092915050565b5f60088302610dd87fffffffffffffffffffffffffffffffffffffffffffffffffffffffffffffffff82610d9d565b610de28683610d9d565b95508019841693508086168417925050509392505050565b5f819050919050565b5f610e1d610e18610e13846107a4565b610dfa565b6107a4565b9050919050565b5f819050919050565b610e3683610e03565b610e4a610e4282610e24565b848454610da9565b825550505050565b5f5f905090565b610e61610e52565b610e6c818484610e2d565b505050565b5b81811015610e8f57610e845f82610e59565b600181019050610e72565b5050565b601f821115610ed457610ea581610d7c565b610eae84610d8e565b81016020851015610ebd578190505b610ed1610ec985610d8e565b830182610e71565b50505b505050565b5f82821c905092915050565b5f610ef45f1984600802610ed9565b1980831691505092915050565b5f610f0c8383610ee5565b9150826002028217905092915050565b610f25826108db565b67ffffffffffffffff811115610f3e57610f3d610a3c565b5b610f488254610be7565b610f53828285610e93565b5f60209050601f831160018114610f84575f8415610f72578287015190505b610f7c8582610f01565b865550610fe3565b601f198416610f9286610d7c565b5f5b82811015610fb957848901518255600182019150602085019450602081019050610f94565b86831015610fd65784890151610fd2601f891682610ee5565b8355505b6001600288020188555050505b505050505050565b5f6040820190508181035f8301526110038185610913565b905061101260208301846107ad565b939250505056fea26469706673582212208d11f9fa1e2e23391be61d0dbb255c9b83b0fd5bfcffb77e2179a2f945c2415064736f6c634300081e0033","linkReferences":{}},"methodIdentifiers":{"getRevokedReceiptId(uint256)":"4c010e1a","getTotalRevocations()":"1405e7cf","isReceiptRevoked(bytes32)":"2c6b0ddf","owner()":"8da5cb5b","renounceOwnership()":"715018a6","revokeReceipt(bytes32,string)":"f3881f13","revokedReceiptIds(uint256)":"20503975","revokedReceipts(bytes32)":"350f7321","transferOwnership(address)":"f2fde38b"},"id":24}